:020000020000FC
:100000000E94300041E00E9434000E9437000E94AC
:10001000460043E00E9437000E94460047E00E94ED
:1000200046000E9437004FE00E9437000E944600C1
:100030004FE10E9437000E9446004FE30E943700C4
:100040000E9446004FE70E9437000E9446004DEF95
:100050000E9437000E9446000E9434000C94000069
:100060008FE084B9089545E52B982B9A08952A9836
:1000700028E047FD289A2A9A440F0E9446002A98B1
:1000800028982A95B1F7299A29980895F02E08EC16
:0E009000E02EEA940000E9F7FA94D1F7089503
:00000001FF
