:100000000C9441000C94BB000C94BB000C94BB00FE
:100010000C94BB000C946B000C94BB000C94BB00C4
:100020000C94BB000C94BB000C94BB000C94BB0064
:100030000C94BB000C94BB000C94BB000C94BB0054
:100040000C94BB000C94BB000C94BB000C94BB0044
:100050000C94BB000C94BB000C94BB000C94BB0034
:100060000C94BB000C94BB000C94BB000C94BB0024
:100070000C94BB000C94BB000C94BB00010001026B
:10008000800011241FBECFEFD8E0DEBFCDBFECE76C
:10009000F0E040E017C0B591A5913591259105910B
:1000A00007FD0CC095918591EF01F92FE82F059080
:1000B0000D92A217B307D9F7FE0104C01D92A21733
:1000C000B307E1F7E138F40731F70E94B6000C946A
:0600D000A100F894FFCF2F
:1000D6001F920F920FB60F9211248F939F93189928
:1000E60018C083ED90E30197F1F700C0000018995E
:1000F60012C08091000181110EC081E08093000141
:10010600809101018F5F809301018091010188B97F
:1001160002C0109200019F918F910F900FBE0F9019
:040126001F90189579
:10012A00E8E6F0E0808183608083ECE6F0E080819D
:08013A00816080837894089530
:10014200EC010E94C0000E94BF00CE010E94C100CB
:06015200CE010E94BD0079
:1001580084B18E7F84B985B1816085B98FEF87B905
:0401680018B8089526
:0A016C000E94AC000E949500FFCF36
:040176000C940000E5
:04017A000E94690076
:02017E000895E2
:020180000895E0
:020182000895DE
:00000001FF
