:020000020000FC
:020000003FC0FF
:1000800008E00EBF0FEF0DBF03E007B9409841989D
:100090000FEF04B900E00AB940E050E007D019B111
:1000A000E7E01E9F102D31D001D0F9CF16D024E00B
:1000B0003EEFB1E0A0E01FEF15B9419A41981D91C4
:1000C0001DD015B9409A409835B9419A419831D020
:1000D0000894331F2A9579F70895B1E0A0E0142F12
:1000E0001F701D93142F12951F701D93152F1F70D5
:1000F0001D93152F12951F701D930895F1E0E6E4EE
:10010000E10F10E0F11F14910895442755270AE0EC
:1001100007D0402F0AE004D00295402B512F0895BC
:10012000FF24101B10F0F394FCCF100F012F1F2D94
:1001300008950AE0F02E08ECE02EEA940000E9F7BA
:10014000FA94D1F70895C0F9A4B0999282F88090FA
:060150008883C6A1868E23
:00000001FF
