:020000020000FC
:020000003FC0FF
:1000800008E00EBF0FEF0DBF0FEF04B907B900E096
:1000900001B90BB905B900E400937C0006EC0093AC
:1000A0007A0000E000937B005DD007E004B9289857
:1000B00029982A980FEF04B9CDD0DED000917A00AC
:1000C000006400937A0000917A0004FFFCCF009353
:1000D0007A001090780018B8009079000BB811E4FD
:1000E0004ED014E44CD013E44AD01AE348D0102D7B
:1000F0005FD0112D5DD010E242D0109078000090BA
:100100007900102D012D61D06BD071D0289814E8A2
:100110008BD011E4289A88D014E4289A85D0289AA4
:1001200013E4289A81D01AE37FD01091020239D0CB
:10013000122F289A79D01CE2289A76D010910302C7
:1001400030D0122F289A70D0109104022AD0122F8A
:10015000289A6AD016E5289A67D01AE0289A64D0BF
:1001600015D0ACCF08E00093C10006E00093C200B8
:1001700000E00093C50003E30093C40008950091DC
:10018000C00005FFFCCF1093C600089508EC10EAEC
:1001900022E32A950000E9F71A95D1F70A95B9F7F5
:1001A00008951A3010F027E301C020E3210F0895CD
:1001B000F12E00EF10231295F4DF122FE0DF1F2D38
:1001C0001F70EFDF122FDBDF08954AEF049FA02C92
:1001D000B12C149FC02CD12CCB0C0024D01C089522
:1001E000C694D0FAC7F8D6948C2D9D2D0895B2E010
:1001F000A0E025E010E01D932A95E9F76AE004D01D
:100200007E938030E1F7089520E177278894880F66
:10021000991F771F20F0761B18F4760F02C0761B0B
:1002200081602A9599F7089501E035D005B10170F4
:100230000F931F93107F102B09D001E02CD01F913A
:100240000F911295107F102B01D0089515B92A9A9D
:100250002A9808950AEF1FD00AEF1DD0289810E3BE
:10026000F5DF0AE218D0289810E3F0DF02E013D09F
:10027000289812E3D9DF0895289814E2D5DF28984A
:1002800011E0D2DF04E107D028981CE0CDDF2898E8
:1002900016E0CADF0895FF92EF92F02E08ECE02EF0
:1002A000EA940000E9F7FA94D1F7EF90FF900895EF
:1002B00090E2AAEFBAEF0000BA95E9F7AA95D1F754
:0602C0009A95B9F70895BC
:00000001FF
