:020000020000FC
:0200000050C0EE
:10007C004D4943524F50524F434553534F52202DED
:10008C0020323431000047524F55502033202D2060
:10009C005454303120000E946000F0E0EEE30E94E6
:1000AC00760001E010E00E948500F0E0E9E40E9497
:1000BC007600FFCF07EF01B90E9495000E949500D2
:1000CC0002E00E949D0008E20E949D000EE00E944A
:1000DC009D0001E00E949D0000E80E949D00089593
:1000EC00FF93EF930F93EE0FFF1F0591003019F064
:1000FC000E94B200FACF0F91EF91FF91089500305A
:10010C0031F41F701068012F0E949D00089501307A
:10011C0029F41F70106C012F0E949D00089550E56A
:10012C004AEF4A950000E9F75A95D1F708951F93C5
:10013C000E94C900102F107F12B900000000129A03
:10014C000000000012980295007F02B9129A00007C
:10015C00000012981F9108951F930E94C900102F40
:10016C00107F116012B90000129A00001298000062
:10017C000295007F007F016002B90000129A000016
:10018C0012981F9108950F9307E001B902EF02B97D
:10019C000000129A0000000000B112980000129AA0
:1001AC0000000000129800000078003891F307EF6F
:0A01BC0001B900E002B90F910895A7
:00000001FF
