:020000020000FC
:0200000045C0F9
:10007C0030786666206E6F7072657373656400000D
:10008C000FEF07B90E948A000E94670078B97917B0
:10009C00D9F3972F01E00E94A00000E80E94A00075
:1000AC007F3F29F4F0E0EEE30E94EC00EDCF7A30D4
:1000BC0010F087E0780F80E3780F072F0E94D500AF
:1000CC00E3CF4FE044B94FEF45B967EF70E083E001
:1000DC0065B900001C9901C011C01D9902C071E0E6
:1000EC000DC01E9902C072E009C01F9902C073E0D6
:1000FC0005C0803039F067958A95EACF770F770F76
:10010C00780F08957FEF089507EF01B90E94CD0095
:10011C000E94CD0002E00E94A00008E20E94A00014
:10012C000EE00E94A00001E00E94A00000E80E94E6
:10013C00A00008951F930E94B300102F107F12B9D6
:10014C0000000000129A0000000012980295007F37
:10015C0002B9129A12981F9108950F9307E001B9F2
:10016C0002EF02B90000129A0000000000B11298D0
:10017C000000129A0000000012980000007800386D
:10018C0091F307EF01B900E002B90F91089550E522
:10019C004AEF4A950000E9F75A95D1F708951F9355
:1001AC000E94B300102F107F116012B90000129A38
:1001BC000000129800000295007F007F016002B9D8
:1001CC000000129A000012981F910895FF93EF936C
:1001DC000F93EE0FFF1F0591003019F00E94D50010
:0A01EC00FACF0F91EF91FF910895F3
:00000001FF
