:100000000C943E000C94F5010C94F5010C94F50150
:100010000C94F5010C94F5010C94F5010C94F50188
:100020000C94F5010C94F5010C94F5010C94F50178
:100030000C94F5010C94F5010C94F5010C94F50168
:100040000C94F5010C94F5010C94F5010C94F50158
:100050000C94F5010C94F5010C94F5010C94F50148
:100060000C94F5010C94F5010C94F5010C94F50138
:100070000C94F5010C94F5010C94F50111241FBEAC
:10008000CFEFD8E0DEBFCDBF0E9447010C94EA015C
:04009000F894FFCF12
:100094007A797877767574737271706F6E6D6C6B34
:1000A4006A6968676665646362613938373635340E
:1000B4003332313031323334353637383961626373
:1000C4006465666768696A6B6C6D6E6F7071727374
:0800D4007475767778797A00E3
:0900DC00526573756C743A200042
:1000E600EF92FF920F931F93CF93DF939C017B01B7
:1000F6008A01CA010297839718F0DB011C923BC064
:10010600EB0102C0EA019B01C901B8010E94C201CC
:10011600AE014F5F5F4F069FC001079F900D169F70
:10012600900D1124F901E81BF90BCF018396092ED6
:10013600000CAA0B8C569F4FAF4FFC018491A7FD74
:100146008081888361157105E9F6332324F44F5FB6
:100156005F4F8DE28983FA013197DA011C92D7014C
:1001660007C08081ED01999190838C93DE013197D0
:10017600AE17BF07B0F3C701DF91CF911F910F9163
:06018600FF90EF900895C8
:10018C0095B19F70282F207F922B95B995B19E7FAA
:10019C0095B995B19D7F95B995B1946095B90000CD
:1001AC0095B19B7F95B932E43A95F1F700C025B132
:1001BC0030E1839FC0011124922F9F70892B85B948
:1001CC0085B1846085B9000085B18B7F85B983EFDB
:0C01DC0091E00197F1F700C000000895C9
:1001E80095B19F70282F207F922B95B995B191607A
:1001F80095B995B19D7F95B995B1946095B9000071
:1002080095B19B7F95B932E43A95F1F700C025B1D5
:1002180030E1839FC0011124922F9F70892B85B9EB
:1002280085B1846085B9000085B18B7F85B983EF7E
:0C02380091E00197F1F700C0000008956C
:100244000F931F93CF93DF93CDB7DEB72B970FB6E2
:10025400F894DEBF0FBECDBFDC01CB014AE050E015
:100264008E010F5F1F4FB8010E947300B80180E830
:100274000E946C012B960FB6F894DEBF0FBECDBF63
:0A028400DF91CF911F910F910895B3
:10028E0011B88FEF84B90E948C0120B188EE93E0F3
:10029E00289F6001299FD00C1124E12CF12C80E8BD
:1002AE000E94C6006CED70E080E00E94AA01C701BA
:1002BE00B6010E9422012FE986E891E0215080408C
:0A02CE009040E1F700C00000E0CF0F
:1002D800CF92DF92EF92CF93DF936B01E82EC0E0CD
:1002E800D0E003C00E94F4002196AE2DC6018C0F09
:1002F8009D1FA11DD7FDAA95FC018491A7FD8081B2
:100308008111F0CFDF91CF91EF90DF90CF900895DA
:100318008FEF84B987E893E10197F1F700C00000F7
:1003280082E00E94C60088E20E94C6008CE00E941B
:10033800C60086E00E94C60081E00E94C60083EFE6
:0C03480091E00197F1F700C0000008955B
:10035400CF92DF92EF92A82FCB0104C00E94F40049
:10036400AE2DC6016C01EA2E2FEFC21AD20AE20AA0
:10037400FC0184918111F2CFEF90DF90CF9008952A
:1003840097FB072E16F4009407D077FD09D00E943E
:10039400D60107FC05D03EF4909581959F4F0895B2
:0803A400709561957F4F0895EB
:1003AC00AA1BBB1B51E107C0AA1FBB1FA617B7078F
:1003BC0010F0A61BB70B881F991F5A95A9F78095AB
:0803CC009095BC01CD010895DC
:1003D400EC010E94FA010E94F901CE010E94FB0186
:0603E400CE010E94F701AA
:0403EA000C9400006F
:0403EE000E94480021
:0203F20008956C
:0203F40008956A
:0203F600089568
:00000001FF
