:100000000C943E000C94BD000C94BD000C94BD00FB
:100010000C94BD000C94BD000C94BD000C94BD006C
:100020000C94BD000C94BD000C94BD000C94BD005C
:100030000C94BD000C94BD000C94BD000C94BD004C
:100040000C94BD000C94BD000C94BD000C94BD003C
:100050000C94BD000C94BD000C94BD000C94BD002C
:100060000C94BD000C94BD000C94BD000C94BD001C
:100070000C94BD000C94BD000C94BD0011241FBE57
:10008000CFEFD8E0DEBFCDBF0E94B8000C94AD002A
:04009000F894FFCF12
:10009400CF93DF9300D000D00F92CDB7DEB7FC0131
:1000A40044E050E02EC09F01ADECBCEC0E949E00E9
:1000B4009695879596958795969587959C01220F99
:1000C400331F880F991F880F991F880F991F820F5C
:1000D400931F9F01281B390BA1E0B0E0AC0FBD1F9B
:1000E400A40FB51F2C939F01ADECBCEC0E949E00A5
:1000F400FC01F695E795F695E795F695E795415059
:100104005109552384F680E090E00BC0DC01BE5F0A
:10011400E1E0F0E0EC0FFD1FE80FF91F20812C93C4
:1001240001968530910594F30F900F900F900F90E6
:080134000F90DF91CF910895B7
:10013C00A29FB001B39FC001A39F700D811D11241C
:0E014C00911DB29F700D811D1124911D08950B
:10015A00EC010E94C2000E94C100CE010E94C300AD
:06016A00CE010E94BF005F
:0A0170008CED9EEF0E944A00FFCFC5
:04017A000C940000E1
:04017E000E94480093
:020182000895DE
:020184000895DC
:020186000895DA
:00000001FF
