:020000020000FC
:020000003FC0FF
:1000800008E00EBF0FEF0DBF0FEF04B928982998B5
:100090002A9859D068D0289810E874D001E088D008
:1000A000F1E0E6ED2ED001E083D0182F18D008D073
:1000B00083957ED07DD07CD07BD07AD079D042C061
:1000C000B2E0A0E01D9120E3120F5CD01D9120E36F
:1000D000120F58D01D9120E3120F54D00895B2E0B2
:1000E000A0E024E6312F06D03D932AE0112F02D064
:1000F0003D931C933327121718F0121B3395FBCF37
:1001000008951591103029F0289A3CD001E050D084
:10011000F8CF089512EC36D014E134D01FEF32D06E
:1001200001E046D001E044D00895289812EC2AD08E
:1001300001E03ED01591103029F0289A23D001E03B
:1001400037D0F8CFA8CF08EC33D0289810E32CD0C4
:100150000AE22ED0289810E327D002E029D0289870
:1001600012E310D00895289818E20CD0289811E0D6
:1001700009D004E11DD028981CE004D0289816E08E
:1001800001D0089505B101700F931F93107F102BBC
:100190000BD001E00DD01F910F911295107F102B05
:1001A00003D001E005D0089515B92A9A2A98089538
:1001B000F02E08ECE02EEA940000E9F7FA94D1F76B
:1001C00008954E554D3A200D204B48414D2020209A
:1001D0005048554300004E554D3A20004E554D3A7B
:0201E0002000FD
:00000001FF
