:020000020000FC
:020000003FC0FF
:1000800008E00EBF0FEF0DBF0FEF04B907B900E096
:1000900001B90BB905B900E400937C0007EE0093A9
:1000A0007A0000E000937B0047D069D000917A008D
:1000B00004FFFCCF0090780010907900002D112DE6
:1000C00000E2001714F4289801C0289A14E510D013
:1000D00015E40ED01DE40CD010E50AD01BD0122F71
:1000E00007D018D0122F04D01AE002D01AD0DECFD9
:1000F00001E054D005B101700F931F93107F102BB6
:1001000028D001E04BD01F910F911295107F102B3A
:1001100020D008951A3010F027E301C020E3210F0A
:10012000089508EC10EA22E32A950000E9F71A95F1
:10013000D1F70A95B9F7089508E00093C10006E0E9
:100140000093C20000E00093C50003E30093C400E5
:10015000089515B92A9A2A9808950AEF1FD00AEF30
:100160001DD0289810E3F5DF0AE218D0289810E394
:10017000F0DF02E013D0289812E3BADF0895289840
:1001800014E2B6DF289811E0B3DF04E107D0289825
:100190001CE0AEDF289816E0ABDF0895FF92EF92E7
:1001A000F02E08ECE02EEA940000E9F7FA94D1F77B
:1001B000EF90FF90089590E2AAEFBAEF0000BA9591
:0C01C000E9F7AA95D1F79A95B9F70895D0
:00000001FF
