:020000020000FC
:100000000FEF0AB94FEF44B95AEF0E94CA0040E31C
:100010000E94AC0052E30E94CA0040E30E94AC0080
:1000200051E00E94CA0040E30E94AC0040E20E94FE
:10003000AC0048E20E94A2004EE00E94A20046E00E
:100040000E94A20041E00E94A20040E80E94A2009B
:100050000E947F0075B97917D9F37F3F59F441E0C9
:100060000E94A20046E40E94B60046E40E94B60048
:10007000972FEECF7F3041F441E00E94A20046E48A
:100080000E94B600972FE4CF7E3041F441E00E94F9
:10009000A20045E40E94B600972FDACF7D3041F4EC
:1000A00041E00E94A20044E40E94B600972FD0CF06
:1000B0007C3041F441E00E94A20043E40E94B6007B
:1000C000972FC6CF7B3041F441E00E94A20042E46A
:1000D0000E94B600972FBCCF7A3041F441E00E94D5
:1000E000A20041E40E94B600972FB2CF41E00E94E7
:1000F000A20040E3470F0E94B600972FA9CF4FE020
:1001000041B94FEF42B967EF70E083E062B9000098
:10011000049901C011C0059902C071E00DC0069993
:1001200002C072E009C0079902C073E005C08030C8
:1001300039F067958A95EACF770F770F780F089592
:100140007FEF08954F93407F0E94AC004F914F7016
:1001500042950E94AC0008954BB9589859985A9A04
:1001600000005A9854E10E94CA0008954F93407FBE
:100170000E94C0004F914F7042950E94C0000895A8
:100180004BB9589A59985A9A00005A9854E10E94CB
:10019000CA0008950E94CF005A95E1F708955F9331
:0C01A00058EC00005A95E9F75F910895B3
:00000001FF
