:020000020000FC
:020000001AC024
:10003400ACC008E00EBF0FEF0DBF0E942A000E9463
:100044002F000E94B80078940E9492000C9428001B
:100054008F938FE084B98F9108952B982B9A0895EC
:100064002F932A9828E0B7FD289A2A9ABB0F28983C
:100074002A982A95C1F7299A29982F9108958040A2
:0E008400201008040201FC12111112FC0000F1
:100124004F935F934FEF4AB940E0F1E0E8E040833A
:1001340040E0F0E0EAE8D1E0C1E048E055915993AD
:100144004A954030D9F75F914F9108950F93BF932B
:1001540000270BB90E943200F0E0E2E80027EA0F22
:10016400F01FB491BBB9BF910F9108950F9300E3B1
:100174000093890004ED0093880009E00093810056
:1001840002E000936F000F9108950F93AF93BF9314
:10019400F1E0E8E00081A02FF1E0E0E0E00F0027CB
:1001A400F01FB0810E94A800A395A83009F4A0E034
:0E01B400F1E0E8E0A083BF91AF910F911895A4
:00000001FF
