:020000020000FC
:100000000FEF04B905B902B900E001B903E00AB97C
:100010005898599820B1209539E0239F402D512DB3
:100020006AE070E058D0D42D422D532D6AE070E084
:1000300052D0C42D422D532D6AE070E04CD0B42D27
:10004000422D532D6AE070E046D0A42D00C00A2F47
:1000500023D007EF05B92BD032D02DD00B2F1CD0D9
:100060000BEF05B924D02BD026D00C2F15D00DEFD7
:1000700005B91DD024D01FD00D2F0ED00EEF05B91D
:1000800016D01DD018D0C6CFC0F9A4B0999282F86E
:1000900080908883C6A1868EF0E0E8E8E00F149196
:1000A00015B901D00895589A000058980895599AA2
:1000B0000000599808950FE005B9F9DF089529ED7A
:1000C00026BD20E024BD25E025BDA89BFECFA89A33
:1000D00020E025BD08951A0181E144185524221C11
:1000E000331C8A9559F0441C551C461A570A20F4B3
:0E00F000460E571E8894F3CF0894F1CF089562
:00000001FF
