:020000020000FC
:100000000FEF01B908E00EBF0FEF0DBF0FEF04B9FE
:10001000289829982A9852D061D02CD0289810E896
:100020006CD001E080D040E138D0013618F00B37B9
:1000300030F0FACF013478F00B3510F0F5CF0052E4
:10004000202F22D0289A122F58D001E06CD04A9548
:1000500059F744D0E8CF003338F30A3308F0E4CF3F
:10006000302E3CD0289A10E848D0132D46D001E01D
:100070005AD0DACF03E30093C40006E00093C20035
:1000800008E10093C10008951F931091C00015FF6F
:10009000FCCF0093C6001F9108951F931091C000DC
:1000A00017FFFCCF0091C600102F1F9108951091EB
:1000B000C00015FFFCCF0093C600089508EC33D0B4
:1000C000289810E32CD00AE22ED0289810E327D0ED
:1000D00002E029D0289812E310D00895289818E259
:1000E0000CD0289811E009D004E11DD028981CE01C
:1000F00004D0289816E001D0089505B101700F933F
:100100001F93107F102B0BD001E00DD01F910F918A
:100110001295107F102B03D001E005D0089515B97A
:100120002A9A2A980895F02E08ECE02EEA9400000E
:08013000E9F7FA94D1F70895F4
:00000001FF
